:100000000C9434000C9448000C9446000C94460068
:100010000C9446000C9446000C9446000C94460048
:100020000C9446000C9446000C9446000C94460038
:100030000C9446000C9446000C9446000C94460028
:100040000C9446000C9446000C9446000C94460018
:100050000C9446000C9446000C9446000C94460008
:100060000C9446000C94460011241FBECFEFD8E03C
:10007000DEBFCDBF21E0A0E0B1E001C01D92A13004
:10008000B207E1F70E9475000C9498000C940000F0
:100090001F920F920FB60F9211242F938F939F935D
:1000A0004A9B10C02FE78CE293E0215080409040A3
:1000B000E1F700C000004A9B05C0809100018F5FFE
:1000C0008093000180910001843068F480910001E8
:1000D00080930001E09A9F918F912F910F900FBE16
:1000E0000F901F90189580E0F3CF8CE184B952985F
:1000F0005A98E89A809169008360809369008FB76D
:1001000080688FBF80910001813069F040F08230BB
:1001100061F08330B9F72C982B982A9AF3CF2C985A
:100120002B982A98EFCF2C9AFBCF2C982B9AF9CFAB
:04013000F894FFCF71
:00000001FF
